{
  "_format": "hh-sol-artifact-1",
  "contractName": "SimplePool",
  "sourceName": "contracts/SimplePool.sol",
  "abi": [
    {
      "inputs": [
        {
          "internalType": "address",
          "name": "_myToken",
          "type": "address"
        },
        {
          "internalType": "address",
          "name": "_usdt",
          "type": "address"
        },
        {
          "internalType": "uint256",
          "name": "_swapFeeBps",
          "type": "uint256"
        }
      ],
      "stateMutability": "nonpayable",
      "type": "constructor"
    },
    {
      "anonymous": false,
      "inputs": [
        {
          "indexed": true,
          "internalType": "address",
          "name": "user",
          "type": "address"
        },
        {
          "indexed": false,
          "internalType": "uint256",
          "name": "amountMyToken",
          "type": "uint256"
        },
        {
          "indexed": false,
          "internalType": "uint256",
          "name": "amountUSDT",
          "type": "uint256"
        },
        {
          "indexed": false,
          "internalType": "uint256",
          "name": "sharesMinted",
          "type": "uint256"
        }
      ],
      "name": "LiquidityAdded",
      "type": "event"
    },
    {
      "anonymous": false,
      "inputs": [
        {
          "indexed": true,
          "internalType": "address",
          "name": "user",
          "type": "address"
        },
        {
          "indexed": false,
          "internalType": "uint256",
          "name": "amountMyToken",
          "type": "uint256"
        },
        {
          "indexed": false,
          "internalType": "uint256",
          "name": "amountUSDT",
          "type": "uint256"
        },
        {
          "indexed": false,
          "internalType": "uint256",
          "name": "sharesBurned",
          "type": "uint256"
        }
      ],
      "name": "LiquidityRemoved",
      "type": "event"
    },
    {
      "anonymous": false,
      "inputs": [
        {
          "indexed": true,
          "internalType": "address",
          "name": "previousOwner",
          "type": "address"
        },
        {
          "indexed": true,
          "internalType": "address",
          "name": "newOwner",
          "type": "address"
        }
      ],
      "name": "OwnershipTransferred",
      "type": "event"
    },
    {
      "anonymous": false,
      "inputs": [
        {
          "indexed": true,
          "internalType": "address",
          "name": "user",
          "type": "address"
        },
        {
          "indexed": false,
          "internalType": "uint256",
          "name": "myTokenAmount",
          "type": "uint256"
        },
        {
          "indexed": false,
          "internalType": "uint256",
          "name": "usdtAmount",
          "type": "uint256"
        }
      ],
      "name": "RewardsClaimed",
      "type": "event"
    },
    {
      "anonymous": false,
      "inputs": [
        {
          "indexed": false,
          "internalType": "uint256",
          "name": "oldFeeBps",
          "type": "uint256"
        },
        {
          "indexed": false,
          "internalType": "uint256",
          "name": "newFeeBps",
          "type": "uint256"
        }
      ],
      "name": "SwapFeeUpdated",
      "type": "event"
    },
    {
      "anonymous": false,
      "inputs": [
        {
          "indexed": true,
          "internalType": "address",
          "name": "user",
          "type": "address"
        },
        {
          "indexed": false,
          "internalType": "uint256",
          "name": "amountIn",
          "type": "uint256"
        },
        {
          "indexed": false,
          "internalType": "uint256",
          "name": "amountOut",
          "type": "uint256"
        },
        {
          "indexed": false,
          "internalType": "uint256",
          "name": "fee",
          "type": "uint256"
        }
      ],
      "name": "SwapMyTokenForUSDT",
      "type": "event"
    },
    {
      "anonymous": false,
      "inputs": [
        {
          "indexed": true,
          "internalType": "address",
          "name": "user",
          "type": "address"
        },
        {
          "indexed": false,
          "internalType": "uint256",
          "name": "amountIn",
          "type": "uint256"
        },
        {
          "indexed": false,
          "internalType": "uint256",
          "name": "amountOut",
          "type": "uint256"
        },
        {
          "indexed": false,
          "internalType": "uint256",
          "name": "fee",
          "type": "uint256"
        }
      ],
      "name": "SwapUSDTForMyToken",
      "type": "event"
    },
    {
      "inputs": [],
      "name": "FEE_DENOM",
      "outputs": [
        {
          "internalType": "uint256",
          "name": "",
          "type": "uint256"
        }
      ],
      "stateMutability": "view",
      "type": "function"
    },
    {
      "inputs": [],
      "name": "PRECISION",
      "outputs": [
        {
          "internalType": "uint256",
          "name": "",
          "type": "uint256"
        }
      ],
      "stateMutability": "view",
      "type": "function"
    },
    {
      "inputs": [],
      "name": "accRewardPerShareMyToken",
      "outputs": [
        {
          "internalType": "uint256",
          "name": "",
          "type": "uint256"
        }
      ],
      "stateMutability": "view",
      "type": "function"
    },
    {
      "inputs": [],
      "name": "accRewardPerShareUSDT",
      "outputs": [
        {
          "internalType": "uint256",
          "name": "",
          "type": "uint256"
        }
      ],
      "stateMutability": "view",
      "type": "function"
    },
    {
      "inputs": [
        {
          "internalType": "uint256",
          "name": "tokenAmount",
          "type": "uint256"
        },
        {
          "internalType": "uint256",
          "name": "usdtAmount",
          "type": "uint256"
        }
      ],
      "name": "addLiquidity",
      "outputs": [],
      "stateMutability": "nonpayable",
      "type": "function"
    },
    {
      "inputs": [],
      "name": "claimRewards",
      "outputs": [],
      "stateMutability": "nonpayable",
      "type": "function"
    },
    {
      "inputs": [],
      "name": "feePoolMyToken",
      "outputs": [
        {
          "internalType": "uint256",
          "name": "",
          "type": "uint256"
        }
      ],
      "stateMutability": "view",
      "type": "function"
    },
    {
      "inputs": [],
      "name": "feePoolUSDT",
      "outputs": [
        {
          "internalType": "uint256",
          "name": "",
          "type": "uint256"
        }
      ],
      "stateMutability": "view",
      "type": "function"
    },
    {
      "inputs": [],
      "name": "myToken",
      "outputs": [
        {
          "internalType": "contract IERC20",
          "name": "",
          "type": "address"
        }
      ],
      "stateMutability": "view",
      "type": "function"
    },
    {
      "inputs": [],
      "name": "owner",
      "outputs": [
        {
          "internalType": "address",
          "name": "",
          "type": "address"
        }
      ],
      "stateMutability": "view",
      "type": "function"
    },
    {
      "inputs": [
        {
          "internalType": "address",
          "name": "user",
          "type": "address"
        }
      ],
      "name": "pendingMyTokenRewards",
      "outputs": [
        {
          "internalType": "uint256",
          "name": "",
          "type": "uint256"
        }
      ],
      "stateMutability": "view",
      "type": "function"
    },
    {
      "inputs": [
        {
          "internalType": "address",
          "name": "user",
          "type": "address"
        }
      ],
      "name": "pendingRewards",
      "outputs": [
        {
          "internalType": "uint256",
          "name": "pendingMyToken",
          "type": "uint256"
        },
        {
          "internalType": "uint256",
          "name": "pendingUSDT",
          "type": "uint256"
        }
      ],
      "stateMutability": "view",
      "type": "function"
    },
    {
      "inputs": [
        {
          "internalType": "address",
          "name": "user",
          "type": "address"
        }
      ],
      "name": "pendingUSDTRewards",
      "outputs": [
        {
          "internalType": "uint256",
          "name": "",
          "type": "uint256"
        }
      ],
      "stateMutability": "view",
      "type": "function"
    },
    {
      "inputs": [
        {
          "internalType": "uint256",
          "name": "shares",
          "type": "uint256"
        }
      ],
      "name": "removeLiquidity",
      "outputs": [],
      "stateMutability": "nonpayable",
      "type": "function"
    },
    {
      "inputs": [],
      "name": "renounceOwnership",
      "outputs": [],
      "stateMutability": "nonpayable",
      "type": "function"
    },
    {
      "inputs": [],
      "name": "reserveMyToken",
      "outputs": [
        {
          "internalType": "uint256",
          "name": "",
          "type": "uint256"
        }
      ],
      "stateMutability": "view",
      "type": "function"
    },
    {
      "inputs": [],
      "name": "reserveUSDT",
      "outputs": [
        {
          "internalType": "uint256",
          "name": "",
          "type": "uint256"
        }
      ],
      "stateMutability": "view",
      "type": "function"
    },
    {
      "inputs": [
        {
          "internalType": "uint256",
          "name": "newFeeBps",
          "type": "uint256"
        }
      ],
      "name": "setSwapFeeBps",
      "outputs": [],
      "stateMutability": "nonpayable",
      "type": "function"
    },
    {
      "inputs": [],
      "name": "swapFeeBps",
      "outputs": [
        {
          "internalType": "uint256",
          "name": "",
          "type": "uint256"
        }
      ],
      "stateMutability": "view",
      "type": "function"
    },
    {
      "inputs": [
        {
          "internalType": "uint256",
          "name": "amountIn",
          "type": "uint256"
        }
      ],
      "name": "swapMyTokenForUSDT",
      "outputs": [],
      "stateMutability": "nonpayable",
      "type": "function"
    },
    {
      "inputs": [
        {
          "internalType": "uint256",
          "name": "amountIn",
          "type": "uint256"
        }
      ],
      "name": "swapUSDTForMyToken",
      "outputs": [],
      "stateMutability": "nonpayable",
      "type": "function"
    },
    {
      "inputs": [],
      "name": "totalLiquidity",
      "outputs": [
        {
          "internalType": "uint256",
          "name": "",
          "type": "uint256"
        }
      ],
      "stateMutability": "view",
      "type": "function"
    },
    {
      "inputs": [
        {
          "internalType": "address",
          "name": "newOwner",
          "type": "address"
        }
      ],
      "name": "transferOwnership",
      "outputs": [],
      "stateMutability": "nonpayable",
      "type": "function"
    },
    {
      "inputs": [],
      "name": "usdt",
      "outputs": [
        {
          "internalType": "contract IERC20",
          "name": "",
          "type": "address"
        }
      ],
      "stateMutability": "view",
      "type": "function"
    },
    {
      "inputs": [
        {
          "internalType": "address",
          "name": "",
          "type": "address"
        }
      ],
      "name": "users",
      "outputs": [
        {
          "internalType": "uint256",
          "name": "shares",
          "type": "uint256"
        },
        {
          "internalType": "uint256",
          "name": "rewardDebtMyToken",
          "type": "uint256"
        },
        {
          "internalType": "uint256",
          "name": "rewardDebtUSDT",
          "type": "uint256"
        }
      ],
      "stateMutability": "view",
      "type": "function"
    },
    {
      "inputs": [],
      "name": "withdrawRewards",
      "outputs": [],
      "stateMutability": "nonpayable",
      "type": "function"
    }
  ],
  "bytecode": "0x60c06040523480156200001157600080fd5b5060405162002d4f38038062002d4f83398181016040528101906200003791906200033f565b60016000819055506200005f62000053620001cc60201b60201c565b620001d460201b60201c565b600073ffffffffffffffffffffffffffffffffffffffff168373ffffffffffffffffffffffffffffffffffffffff1614158015620000ca5750600073ffffffffffffffffffffffffffffffffffffffff168273ffffffffffffffffffffffffffffffffffffffff1614155b6200010c576040517f08c379a00000000000000000000000000000000000000000000000000000000081526004016200010390620003fc565b60405180910390fd5b6103e881111562000154576040517f08c379a00000000000000000000000000000000000000000000000000000000081526004016200014b906200046e565b60405180910390fd5b8273ffffffffffffffffffffffffffffffffffffffff1660808173ffffffffffffffffffffffffffffffffffffffff16815250508173ffffffffffffffffffffffffffffffffffffffff1660a08173ffffffffffffffffffffffffffffffffffffffff16815250508060058190555050505062000490565b600033905090565b6000600160009054906101000a900473ffffffffffffffffffffffffffffffffffffffff16905081600160006101000a81548173ffffffffffffffffffffffffffffffffffffffff021916908373ffffffffffffffffffffffffffffffffffffffff1602179055508173ffffffffffffffffffffffffffffffffffffffff168173ffffffffffffffffffffffffffffffffffffffff167f8be0079c531659141344cd1fd0a4f28419497f9722a3daafe3b4186f6b6457e060405160405180910390a35050565b600080fd5b600073ffffffffffffffffffffffffffffffffffffffff82169050919050565b6000620002cc826200029f565b9050919050565b620002de81620002bf565b8114620002ea57600080fd5b50565b600081519050620002fe81620002d3565b92915050565b6000819050919050565b620003198162000304565b81146200032557600080fd5b50565b60008151905062000339816200030e565b92915050565b6000806000606084860312156200035b576200035a6200029a565b5b60006200036b86828701620002ed565b93505060206200037e86828701620002ed565b9250506040620003918682870162000328565b9150509250925092565b600082825260208201905092915050565b7f496e76616c696420746f6b656e00000000000000000000000000000000000000600082015250565b6000620003e4600d836200039b565b9150620003f182620003ac565b602082019050919050565b600060208201905081810360008301526200041781620003d5565b9050919050565b7f46656520746f6f20686967680000000000000000000000000000000000000000600082015250565b600062000456600c836200039b565b915062000463826200041e565b602082019050919050565b60006020820190508181036000830152620004898162000447565b9050919050565b60805160a051612853620004fc600039600081816104aa015281816106f401528181610a7101528181610bd301528181610ff901526118870152600081816105ac01528181610a2601528181610b8601528181611141015281816111e7015261183201526128536000f3fe608060405234801561001057600080fd5b506004361061018e5760003560e01c80639bc29062116100de578063b8fcf93711610097578063d30dd06511610071578063d30dd0651461042e578063e72e83ce1461044c578063f2fde38b14610468578063f7efb3f9146104845761018e565b8063b8fcf937146103e8578063c7b8981c14610406578063cf8bd6ab146104105761018e565b80639bc29062146103265780639c8f9f23146103445780639cd441da14610360578063a87430ba1461037c578063aaf5eb68146103ae578063ae358250146103cc5761018e565b80634886c6751161014b578063715018a611610125578063715018a6146102b05780638da5cb5b146102ba5780639851640d146102d85780639a1e9901146102f65761018e565b80634886c6751461024657806356238d06146102645780636d09419b146102805761018e565b806315770f92146101935780632f48ab7d146101b15780632ffdaf89146101cf57806331d7a262146101ed578063372500ab1461021e5780633ed06b6514610228575b600080fd5b61019b6104a2565b6040516101a89190611cd9565b60405180910390f35b6101b96104a8565b6040516101c69190611d73565b60405180910390f35b6101d76104cc565b6040516101e49190611cd9565b60405180910390f35b61020760048036038101906102029190611dd1565b6104d2565b604051610215929190611dfe565b60405180910390f35b6102266104f0565b005b6102306104fa565b60405161023d9190611cd9565b60405180910390f35b61024e610500565b60405161025b9190611cd9565b60405180910390f35b61027e60048036038101906102799190611e53565b610506565b005b61029a60048036038101906102959190611dd1565b610798565b6040516102a79190611cd9565b60405180910390f35b6102b86107aa565b005b6102c26107be565b6040516102cf9190611e8f565b60405180910390f35b6102e06107e8565b6040516102ed9190611cd9565b60405180910390f35b610310600480360381019061030b9190611dd1565b6107ee565b60405161031d9190611cd9565b60405180910390f35b61032e610800565b60405161033b9190611cd9565b60405180910390f35b61035e60048036038101906103599190611e53565b610806565b005b61037a60048036038101906103759190611eaa565b610b16565b005b61039660048036038101906103919190611dd1565b610f1b565b6040516103a593929190611eea565b60405180910390f35b6103b6610f45565b6040516103c39190611cd9565b60405180910390f35b6103e660048036038101906103e19190611e53565b610f53565b005b6103f06111e5565b6040516103fd9190611d73565b60405180910390f35b61040e611209565b005b61041861122c565b6040516104259190611cd9565b60405180910390f35b610436611232565b6040516104439190611cd9565b60405180910390f35b61046660048036038101906104619190611e53565b611238565b005b610482600480360381019061047d9190611dd1565b6112d0565b005b61048c611353565b6040516104999190611cd9565b60405180910390f35b60045481565b7f000000000000000000000000000000000000000000000000000000000000000081565b60055481565b6000806104de83611359565b6104e7846113e1565b91509150915091565b6104f8611209565b565b60025481565b61271081565b61050e611469565b60008111610551576040517f08c379a000000000000000000000000000000000000000000000000000000000815260040161054890611f7e565b60405180910390fd5b600060025411801561056557506000600354115b6105a4576040517f08c379a000000000000000000000000000000000000000000000000000000000815260040161059b90611fea565b60405180910390fd5b6105f13330837f000000000000000000000000000000000000000000000000000000000000000073ffffffffffffffffffffffffffffffffffffffff166114b8909392919063ffffffff16565b6000612710600554836106049190612039565b61060e91906120aa565b90506000818361061e91906120db565b90508160096000828254610632919061210f565b92505081905550610641611541565b600081600254610651919061210f565b8260035461065f9190612039565b61066991906120aa565b905060008111801561067c575060035481105b6106bb576040517f08c379a00000000000000000000000000000000000000000000000000000000081526004016106b29061218f565b60405180910390fd5b81600260008282546106cd919061210f565b9250508190555080600360008282546106e691906120db565b9250508190555061073833827f000000000000000000000000000000000000000000000000000000000000000073ffffffffffffffffffffffffffffffffffffffff166115f19092919063ffffffff16565b3373ffffffffffffffffffffffffffffffffffffffff167f5058234ff06e7ea81ff56982af4ac17d408cb4e8a3b7dea3193e6c53faf319e185838660405161078293929190611eea565b60405180910390a2505050610795611677565b50565b60006107a382611359565b9050919050565b6107b2611681565b6107bc60006116ff565b565b6000600160009054906101000a900473ffffffffffffffffffffffffffffffffffffffff16905090565b60075481565b60006107f9826113e1565b9050919050565b60035481565b61080e611469565b60008111610851576040517f08c379a000000000000000000000000000000000000000000000000000000000815260040161084890611f7e565b60405180910390fd5b6000600660003373ffffffffffffffffffffffffffffffffffffffff1673ffffffffffffffffffffffffffffffffffffffff168152602001908152602001600020905081816000015410156108db576040517f08c379a00000000000000000000000000000000000000000000000000000000081526004016108d2906121fb565b60405180910390fd5b6108e3611541565b6108ec336117c5565b6000600454670de0b6b3a7640000846109059190612039565b61090f91906120aa565b90506000670de0b6b3a76400008260025461092a9190612039565b61093491906120aa565b90506000670de0b6b3a76400008360035461094f9190612039565b61095991906120aa565b9050816002600082825461096d91906120db565b92505081905550806003600082825461098691906120db565b92505081905550846004600082825461099f91906120db565b92505081905550848460000160008282546109ba91906120db565b9250508190555069d3c21bcecceda100000060075485600001546109de9190612039565b6109e891906120aa565b846001018190555069d3c21bcecceda10000006008548560000154610a0d9190612039565b610a1791906120aa565b8460020181905550610a6a33837f000000000000000000000000000000000000000000000000000000000000000073ffffffffffffffffffffffffffffffffffffffff166115f19092919063ffffffff16565b610ab533827f000000000000000000000000000000000000000000000000000000000000000073ffffffffffffffffffffffffffffffffffffffff166115f19092919063ffffffff16565b3373ffffffffffffffffffffffffffffffffffffffff167f1dc8bb69df2b8e91fbdcbfcf93d951b3f0000f085a95fe3f7946d6161439245d838388604051610aff93929190611eea565b60405180910390a250505050610b13611677565b50565b610b1e611469565b600082118015610b2e5750600081115b610b6d576040517f08c379a0000000000000000000000000000000000000000000000000000000008152600401610b6490612267565b60405180910390fd5b610b75611541565b610b7e336117c5565b610bcb3330847f000000000000000000000000000000000000000000000000000000000000000073ffffffffffffffffffffffffffffffffffffffff166114b8909392919063ffffffff16565b610c183330837f000000000000000000000000000000000000000000000000000000000000000073ffffffffffffffffffffffffffffffffffffffff166114b8909392919063ffffffff16565b60008060045403610c3e57610c378284610c329190612039565b611995565b9050610c7f565b610c7c60025460045485610c529190612039565b610c5c91906120aa565b60035460045485610c6d9190612039565b610c7791906120aa565b611a0a565b90505b60008111610cc2576040517f08c379a0000000000000000000000000000000000000000000000000000000008152600401610cb9906122d3565b60405180910390fd5b8060046000828254610cd4919061210f565b9250508190555080600660003373ffffffffffffffffffffffffffffffffffffffff1673ffffffffffffffffffffffffffffffffffffffff1681526020019081526020016000206000016000828254610d2d919061210f565b925050819055508260026000828254610d46919061210f565b925050819055508160036000828254610d5f919061210f565b9250508190555069d3c21bcecceda1000000600754600660003373ffffffffffffffffffffffffffffffffffffffff1673ffffffffffffffffffffffffffffffffffffffff16815260200190815260200160002060000154610dc19190612039565b610dcb91906120aa565b600660003373ffffffffffffffffffffffffffffffffffffffff1673ffffffffffffffffffffffffffffffffffffffff1681526020019081526020016000206001018190555069d3c21bcecceda1000000600854600660003373ffffffffffffffffffffffffffffffffffffffff1673ffffffffffffffffffffffffffffffffffffffff16815260200190815260200160002060000154610e6c9190612039565b610e7691906120aa565b600660003373ffffffffffffffffffffffffffffffffffffffff1673ffffffffffffffffffffffffffffffffffffffff168152602001908152602001600020600201819055503373ffffffffffffffffffffffffffffffffffffffff167f64b83944e79c3ce8d4c297411de637c3e102d064677aac0c163976ebdcd6f50e848484604051610f0693929190611eea565b60405180910390a250610f17611677565b5050565b60066020528060005260406000206000915090508060000154908060010154908060020154905083565b69d3c21bcecceda100000081565b610f5b611469565b60008111610f9e576040517f08c379a0000000000000000000000000000000000000000000000000000000008152600401610f9590611f7e565b60405180910390fd5b6000600254118015610fb257506000600354115b610ff1576040517f08c379a0000000000000000000000000000000000000000000000000000000008152600401610fe890611fea565b60405180910390fd5b61103e3330837f000000000000000000000000000000000000000000000000000000000000000073ffffffffffffffffffffffffffffffffffffffff166114b8909392919063ffffffff16565b6000612710600554836110519190612039565b61105b91906120aa565b90506000818361106b91906120db565b905081600a600082825461107f919061210f565b9250508190555061108e611541565b60008160035461109e919061210f565b826002546110ac9190612039565b6110b691906120aa565b90506000811180156110c9575060025481105b611108576040517f08c379a00000000000000000000000000000000000000000000000000000000081526004016110ff9061218f565b60405180910390fd5b816003600082825461111a919061210f565b92505081905550806002600082825461113391906120db565b9250508190555061118533827f000000000000000000000000000000000000000000000000000000000000000073ffffffffffffffffffffffffffffffffffffffff166115f19092919063ffffffff16565b3373ffffffffffffffffffffffffffffffffffffffff167fa9fe80a4afe6e948b6c8d630c716f75ced0836705c38161411d90007b98a115b8583866040516111cf93929190611eea565b60405180910390a25050506111e2611677565b50565b7f000000000000000000000000000000000000000000000000000000000000000081565b611211611469565b611219611541565b611222336117c5565b61122a611677565b565b60085481565b60095481565b611240611681565b6103e8811115611285576040517f08c379a000000000000000000000000000000000000000000000000000000000815260040161127c9061233f565b60405180910390fd5b60006005549050816005819055507fc8273cce54f5cf71712dee009c7e6438ae7e1db578da0ec076cf360af45501b981836040516112c4929190611dfe565b60405180910390a15050565b6112d8611681565b600073ffffffffffffffffffffffffffffffffffffffff168173ffffffffffffffffffffffffffffffffffffffff1603611347576040517f08c379a000000000000000000000000000000000000000000000000000000000815260040161133e906123d1565b60405180910390fd5b611350816116ff565b50565b600a5481565b600080600660008473ffffffffffffffffffffffffffffffffffffffff1673ffffffffffffffffffffffffffffffffffffffff1681526020019081526020016000209050600069d3c21bcecceda100000060075483600001546113bc9190612039565b6113c691906120aa565b90508160010154816113d891906120db565b92505050919050565b600080600660008473ffffffffffffffffffffffffffffffffffffffff1673ffffffffffffffffffffffffffffffffffffffff1681526020019081526020016000209050600069d3c21bcecceda100000060085483600001546114449190612039565b61144e91906120aa565b905081600201548161146091906120db565b92505050919050565b6002600054036114ae576040517f08c379a00000000000000000000000000000000000000000000000000000000081526004016114a59061243d565b60405180910390fd5b6002600081905550565b61153b846323b872dd60e01b8585856040516024016114d99392919061245d565b604051602081830303815290604052907bffffffffffffffffffffffffffffffffffffffffffffffffffffffff19166020820180517bffffffffffffffffffffffffffffffffffffffffffffffffffffffff8381831617835250505050611a23565b50505050565b600060045403156115ef576000600954111561159d5760045469d3c21bcecceda10000006009546115729190612039565b61157c91906120aa565b6007600082825461158d919061210f565b9250508190555060006009819055505b6000600a5411156115ee5760045469d3c21bcecceda1000000600a546115c39190612039565b6115cd91906120aa565b600860008282546115de919061210f565b925050819055506000600a819055505b5b565b6116728363a9059cbb60e01b8484604051602401611610929190612494565b604051602081830303815290604052907bffffffffffffffffffffffffffffffffffffffffffffffffffffffff19166020820180517bffffffffffffffffffffffffffffffffffffffffffffffffffffffff8381831617835250505050611a23565b505050565b6001600081905550565b611689611aeb565b73ffffffffffffffffffffffffffffffffffffffff166116a76107be565b73ffffffffffffffffffffffffffffffffffffffff16146116fd576040517f08c379a00000000000000000000000000000000000000000000000000000000081526004016116f490612509565b60405180910390fd5b565b6000600160009054906101000a900473ffffffffffffffffffffffffffffffffffffffff16905081600160006101000a81548173ffffffffffffffffffffffffffffffffffffffff021916908373ffffffffffffffffffffffffffffffffffffffff1602179055508173ffffffffffffffffffffffffffffffffffffffff168173ffffffffffffffffffffffffffffffffffffffff167f8be0079c531659141344cd1fd0a4f28419497f9722a3daafe3b4186f6b6457e060405160405180910390a35050565b6000600660008373ffffffffffffffffffffffffffffffffffffffff1673ffffffffffffffffffffffffffffffffffffffff1681526020019081526020016000209050600061181383611359565b90506000611820846113e1565b905060008211156118775761187684837f000000000000000000000000000000000000000000000000000000000000000073ffffffffffffffffffffffffffffffffffffffff166115f19092919063ffffffff16565b5b60008111156118cc576118cb84827f000000000000000000000000000000000000000000000000000000000000000073ffffffffffffffffffffffffffffffffffffffff166115f19092919063ffffffff16565b5b69d3c21bcecceda100000060075484600001546118e99190612039565b6118f391906120aa565b836001018190555069d3c21bcecceda100000060085484600001546119189190612039565b61192291906120aa565b836002018190555060008211806119395750600081115b1561198f578373ffffffffffffffffffffffffffffffffffffffff167fdacbdde355ba930696a362ea6738feb9f8bd52dfb3d81947558fd3217e23e3258383604051611986929190611dfe565b60405180910390a25b50505050565b60008082036119a75760009050611a05565b600060026001846119b8919061210f565b6119c291906120aa565b905060008390505b808210156119ff5781905060028283866119e491906120aa565b6119ee919061210f565b6119f891906120aa565b91506119ca565b80925050505b919050565b6000818310611a195781611a1b565b825b905092915050565b6000611a85826040518060400160405280602081526020017f5361666545524332303a206c6f772d6c6576656c2063616c6c206661696c65648152508573ffffffffffffffffffffffffffffffffffffffff16611af39092919063ffffffff16565b9050600081511480611aa7575080806020019051810190611aa69190612561565b5b611ae6576040517f08c379a0000000000000000000000000000000000000000000000000000000008152600401611add90612600565b60405180910390fd5b505050565b600033905090565b6060611b028484600085611b0b565b90509392505050565b606082471015611b50576040517f08c379a0000000000000000000000000000000000000000000000000000000008152600401611b4790612692565b60405180910390fd5b6000808673ffffffffffffffffffffffffffffffffffffffff168587604051611b799190612723565b60006040518083038185875af1925050503d8060008114611bb6576040519150601f19603f3d011682016040523d82523d6000602084013e611bbb565b606091505b5091509150611bcc87838387611bd8565b92505050949350505050565b60608315611c3a576000835103611c3257611bf285611c4d565b611c31576040517f08c379a0000000000000000000000000000000000000000000000000000000008152600401611c2890612786565b60405180910390fd5b5b829050611c45565b611c448383611c70565b5b949350505050565b6000808273ffffffffffffffffffffffffffffffffffffffff163b119050919050565b600082511115611c835781518083602001fd5b806040517f08c379a0000000000000000000000000000000000000000000000000000000008152600401611cb791906127fb565b60405180910390fd5b6000819050919050565b611cd381611cc0565b82525050565b6000602082019050611cee6000830184611cca565b92915050565b600073ffffffffffffffffffffffffffffffffffffffff82169050919050565b6000819050919050565b6000611d39611d34611d2f84611cf4565b611d14565b611cf4565b9050919050565b6000611d4b82611d1e565b9050919050565b6000611d5d82611d40565b9050919050565b611d6d81611d52565b82525050565b6000602082019050611d886000830184611d64565b92915050565b600080fd5b6000611d9e82611cf4565b9050919050565b611dae81611d93565b8114611db957600080fd5b50565b600081359050611dcb81611da5565b92915050565b600060208284031215611de757611de6611d8e565b5b6000611df584828501611dbc565b91505092915050565b6000604082019050611e136000830185611cca565b611e206020830184611cca565b9392505050565b611e3081611cc0565b8114611e3b57600080fd5b50565b600081359050611e4d81611e27565b92915050565b600060208284031215611e6957611e68611d8e565b5b6000611e7784828501611e3e565b91505092915050565b611e8981611d93565b82525050565b6000602082019050611ea46000830184611e80565b92915050565b60008060408385031215611ec157611ec0611d8e565b5b6000611ecf85828601611e3e565b9250506020611ee085828601611e3e565b9150509250929050565b6000606082019050611eff6000830186611cca565b611f0c6020830185611cca565b611f196040830184611cca565b949350505050565b600082825260208201905092915050565b7f496e76616c696420616d6f756e74000000000000000000000000000000000000600082015250565b6000611f68600e83611f21565b9150611f7382611f32565b602082019050919050565b60006020820190508181036000830152611f9781611f5b565b9050919050565b7f4e6f206c69717569646974790000000000000000000000000000000000000000600082015250565b6000611fd4600c83611f21565b9150611fdf82611f9e565b602082019050919050565b6000602082019050818103600083015261200381611fc7565b9050919050565b7f4e487b7100000000000000000000000000000000000000000000000000000000600052601160045260246000fd5b600061204482611cc0565b915061204f83611cc0565b925082820261205d81611cc0565b915082820484148315176120745761207361200a565b5b5092915050565b7f4e487b7100000000000000000000000000000000000000000000000000000000600052601260045260246000fd5b60006120b582611cc0565b91506120c083611cc0565b9250826120d0576120cf61207b565b5b828204905092915050565b60006120e682611cc0565b91506120f183611cc0565b92508282039050818111156121095761210861200a565b5b92915050565b600061211a82611cc0565b915061212583611cc0565b925082820190508082111561213d5761213c61200a565b5b92915050565b7f496e73756666696369656e74206f757470757400000000000000000000000000600082015250565b6000612179601383611f21565b915061218482612143565b602082019050919050565b600060208201905081810360008301526121a88161216c565b9050919050565b7f4e6f7420656e6f756768206c6971756964697479000000000000000000000000600082015250565b60006121e5601483611f21565b91506121f0826121af565b602082019050919050565b60006020820190508181036000830152612214816121d8565b9050919050565b7f496e76616c696420616d6f756e74730000000000000000000000000000000000600082015250565b6000612251600f83611f21565b915061225c8261221b565b602082019050919050565b6000602082019050818103600083015261228081612244565b9050919050565b7f5a65726f20736861726573000000000000000000000000000000000000000000600082015250565b60006122bd600b83611f21565b91506122c882612287565b602082019050919050565b600060208201905081810360008301526122ec816122b0565b9050919050565b7f46656520746f6f20686967680000000000000000000000000000000000000000600082015250565b6000612329600c83611f21565b9150612334826122f3565b602082019050919050565b600060208201905081810360008301526123588161231c565b9050919050565b7f4f776e61626c653a206e6577206f776e657220697320746865207a65726f206160008201527f6464726573730000000000000000000000000000000000000000000000000000602082015250565b60006123bb602683611f21565b91506123c68261235f565b604082019050919050565b600060208201905081810360008301526123ea816123ae565b9050919050565b7f5265656e7472616e637947756172643a207265656e7472616e742063616c6c00600082015250565b6000612427601f83611f21565b9150612432826123f1565b602082019050919050565b600060208201905081810360008301526124568161241a565b9050919050565b60006060820190506124726000830186611e80565b61247f6020830185611e80565b61248c6040830184611cca565b949350505050565b60006040820190506124a96000830185611e80565b6124b66020830184611cca565b9392505050565b7f4f776e61626c653a2063616c6c6572206973206e6f7420746865206f776e6572600082015250565b60006124f3602083611f21565b91506124fe826124bd565b602082019050919050565b60006020820190508181036000830152612522816124e6565b9050919050565b60008115159050919050565b61253e81612529565b811461254957600080fd5b50565b60008151905061255b81612535565b92915050565b60006020828403121561257757612576611d8e565b5b60006125858482850161254c565b91505092915050565b7f5361666545524332303a204552433230206f7065726174696f6e20646964206e60008201527f6f74207375636365656400000000000000000000000000000000000000000000602082015250565b60006125ea602a83611f21565b91506125f58261258e565b604082019050919050565b60006020820190508181036000830152612619816125dd565b9050919050565b7f416464726573733a20696e73756666696369656e742062616c616e636520666f60008201527f722063616c6c0000000000000000000000000000000000000000000000000000602082015250565b600061267c602683611f21565b915061268782612620565b604082019050919050565b600060208201905081810360008301526126ab8161266f565b9050919050565b600081519050919050565b600081905092915050565b60005b838110156126e65780820151818401526020810190506126cb565b60008484015250505050565b60006126fd826126b2565b61270781856126bd565b93506127178185602086016126c8565b80840191505092915050565b600061272f82846126f2565b915081905092915050565b7f416464726573733a2063616c6c20746f206e6f6e2d636f6e7472616374000000600082015250565b6000612770601d83611f21565b915061277b8261273a565b602082019050919050565b6000602082019050818103600083015261279f81612763565b9050919050565b600081519050919050565b6000601f19601f8301169050919050565b60006127cd826127a6565b6127d78185611f21565b93506127e78185602086016126c8565b6127f0816127b1565b840191505092915050565b6000602082019050818103600083015261281581846127c2565b90509291505056fea2646970667358221220e68d9e4f12f42bbeca72acce2c77c89e2afc60b231623dd157cd2e6edc8a5e7764736f6c63430008140033",
  "linkReferences": {},
  "deployedLinkReferences": {}
}